{
  "contractName": "Authentifi",
  "abi": [
    {
      "constant": false,
      "inputs": [
        {
          "name": "_code",
          "type": "string"
        },
        {
          "name": "_brand",
          "type": "string"
        },
        {
          "name": "_model",
          "type": "string"
        },
        {
          "name": "_status",
          "type": "uint256"
        },
        {
          "name": "_description",
          "type": "string"
        },
        {
          "name": "_manufactuerName",
          "type": "string"
        },
        {
          "name": "_manufactuerLocation",
          "type": "string"
        },
        {
          "name": "_manufactuerTimestamp",
          "type": "string"
        }
      ],
      "name": "createCode",
      "outputs": [
        {
          "name": "",
          "type": "uint256"
        }
      ],
      "payable": true,
      "stateMutability": "payable",
      "type": "function"
    },
    {
      "constant": true,
      "inputs": [
        {
          "name": "_code",
          "type": "string"
        }
      ],
      "name": "getNotOwnedCodeDetails",
      "outputs": [
        {
          "name": "",
          "type": "string"
        },
        {
          "name": "",
          "type": "string"
        },
        {
          "name": "",
          "type": "uint256"
        },
        {
          "name": "",
          "type": "string"
        },
        {
          "name": "",
          "type": "string"
        },
        {
          "name": "",
          "type": "string"
        },
        {
          "name": "",
          "type": "string"
        }
      ],
      "payable": false,
      "stateMutability": "view",
      "type": "function"
    },
    {
      "constant": true,
      "inputs": [
        {
          "name": "_code",
          "type": "string"
        }
      ],
      "name": "getOwnedCodeDetails",
      "outputs": [
        {
          "name": "",
          "type": "string"
        },
        {
          "name": "",
          "type": "string"
        }
      ],
      "payable": false,
      "stateMutability": "view",
      "type": "function"
    },
    {
      "constant": false,
      "inputs": [
        {
          "name": "_code",
          "type": "string"
        },
        {
          "name": "_hashedEmailRetailer",
          "type": "string"
        }
      ],
      "name": "addRetailerToCode",
      "outputs": [
        {
          "name": "",
          "type": "uint256"
        }
      ],
      "payable": true,
      "stateMutability": "payable",
      "type": "function"
    },
    {
      "constant": false,
      "inputs": [
        {
          "name": "_hashedEmail",
          "type": "string"
        },
        {
          "name": "_name",
          "type": "string"
        },
        {
          "name": "_phone",
          "type": "string"
        }
      ],
      "name": "createCustomer",
      "outputs": [
        {
          "name": "",
          "type": "bool"
        }
      ],
      "payable": true,
      "stateMutability": "payable",
      "type": "function"
    },
    {
      "constant": true,
      "inputs": [
        {
          "name": "_code",
          "type": "string"
        }
      ],
      "name": "getCustomerDetails",
      "outputs": [
        {
          "name": "",
          "type": "string"
        },
        {
          "name": "",
          "type": "string"
        }
      ],
      "payable": false,
      "stateMutability": "view",
      "type": "function"
    },
    {
      "constant": false,
      "inputs": [
        {
          "name": "_hashedEmail",
          "type": "string"
        },
        {
          "name": "_retailerName",
          "type": "string"
        },
        {
          "name": "_retailerLocation",
          "type": "string"
        }
      ],
      "name": "createRetailer",
      "outputs": [
        {
          "name": "",
          "type": "uint256"
        }
      ],
      "payable": true,
      "stateMutability": "payable",
      "type": "function"
    },
    {
      "constant": true,
      "inputs": [
        {
          "name": "_code",
          "type": "string"
        }
      ],
      "name": "getRetailerDetails",
      "outputs": [
        {
          "name": "",
          "type": "string"
        },
        {
          "name": "",
          "type": "string"
        }
      ],
      "payable": false,
      "stateMutability": "view",
      "type": "function"
    },
    {
      "constant": false,
      "inputs": [
        {
          "name": "_code",
          "type": "string"
        },
        {
          "name": "_customer",
          "type": "string"
        }
      ],
      "name": "reportStolen",
      "outputs": [
        {
          "name": "",
          "type": "bool"
        }
      ],
      "payable": true,
      "stateMutability": "payable",
      "type": "function"
    },
    {
      "constant": false,
      "inputs": [
        {
          "name": "_code",
          "type": "string"
        },
        {
          "name": "_oldCustomer",
          "type": "string"
        },
        {
          "name": "_newCustomer",
          "type": "string"
        }
      ],
      "name": "changeOwner",
      "outputs": [
        {
          "name": "",
          "type": "bool"
        }
      ],
      "payable": true,
      "stateMutability": "payable",
      "type": "function"
    },
    {
      "constant": false,
      "inputs": [
        {
          "name": "_code",
          "type": "string"
        },
        {
          "name": "_retailer",
          "type": "string"
        },
        {
          "name": "_customer",
          "type": "string"
        }
      ],
      "name": "initialOwner",
      "outputs": [
        {
          "name": "",
          "type": "bool"
        }
      ],
      "payable": true,
      "stateMutability": "payable",
      "type": "function"
    },
    {
      "constant": true,
      "inputs": [
        {
          "name": "_customer",
          "type": "string"
        }
      ],
      "name": "getCodes",
      "outputs": [
        {
          "name": "",
          "type": "string[]"
        }
      ],
      "payable": false,
      "stateMutability": "view",
      "type": "function"
    }
  ],
  "bytecode": "0x608060405234801561001057600080fd5b50613fa1806100206000396000f3006080604052600436106100ba576000357c0100000000000000000000000000000000000000000000000000000000900463ffffffff16806310999689146100bf578063285e9e16146100ef57806355b059e81461012d5780637ab9c57c1461015d57806391904ff8146101a0578063b3e19d1a146101d0578063b5bd438b14610200578063c5e6971714610230578063c91e74e314610260578063ceff2efc1461029e578063ea788dd1146102ce578063ff9010401461030c575b600080fd5b6100d960048036036100d49190810190613ae6565b610349565b6040516100e69190613e45565b60405180910390f35b3480156100fb57600080fd5b50610116600480360361011191908101906139a2565b6105a4565b604051610124929190613d75565b60405180910390f35b61014760048036036101429190810190613a4f565b6108aa565b6040516101549190613d5a565b60405180910390f35b34801561016957600080fd5b50610184600480360361017f91908101906139a2565b610a96565b6040516101979796959493929190613dac565b60405180910390f35b6101ba60048036036101b591908101906139e3565b611165565b6040516101c79190613d5a565b60405180910390f35b6101ea60048036036101e591908101906139e3565b61141d565b6040516101f79190613e45565b60405180910390f35b61021a60048036036102159190810190613a4f565b6114ac565b6040516102279190613e45565b60405180910390f35b61024a60048036036102459190810190613a4f565b6115ac565b6040516102579190613d5a565b60405180910390f35b34801561026c57600080fd5b50610287600480360361028291908101906139a2565b611c00565b604051610295929190613d75565b60405180910390f35b6102b860048036036102b39190810190613a4f565b611e20565b6040516102c59190613d5a565b60405180910390f35b3480156102da57600080fd5b506102f560048036036102f091908101906139a2565b6130d5565b604051610303929190613d75565b60405180910390f35b34801561031857600080fd5b50610333600480360361032e91908101906139a2565b6132f5565b6040516103409190613d38565b60405180910390f35b600080888160010190805190602001906103649291906135fd565b508781600201908051906020019061037d9291906135fd565b508681600001819055508581600301908051906020019061039f9291906135fd565b50848160040190805190602001906103b89291906135fd565b50838160050190805190602001906103d19291906135fd565b50828160060190805190602001906103ea9291906135fd565b508060018b6040518082805190602001908083835b60208310151561042457805182526020820191506020810190506020830392506103ff565b6001836020036101000a0380198251168184511680821785525050505050509050019150509081526020016040518091039020600082015481600001556001820181600101908054600181600116156101000203166002900461048892919061367d565b50600282018160020190805460018160011615610100020316600290046104b092919061367d565b50600382018160030190805460018160011615610100020316600290046104d892919061367d565b506004820181600401908054600181600116156101000203166002900461050092919061367d565b506005820181600501908054600181600116156101000203166002900461052892919061367d565b506006820181600601908054600181600116156101000203166002900461055092919061367d565b506007820181600701908054600181600116156101000203166002900461057892919061367d565b50600882018160080190805461058f929190613704565b50905050600191505098975050505050505050565b60608060036001846040518082805190602001908083835b6020831015156105e157805182526020820191506020810190506020830392506105bc565b6001836020036101000a038019825116818451168082178552505050505050905001915050908152602001604051809103902060070160405180828054600181600116156101000203166002900480156106725780601f10610650576101008083540402835291820191610672565b820191906000526020600020905b81548152906001019060200180831161065e575b5050915050908152602001604051809103902060000160036001856040518082805190602001908083835b6020831015156106c2578051825260208201915060208101905060208303925061069d565b6001836020036101000a038019825116818451168082178552505050505050905001915050908152602001604051809103902060070160405180828054600181600116156101000203166002900480156107535780601f10610731576101008083540402835291820191610753565b820191906000526020600020905b81548152906001019060200180831161073f575b50509150509081526020016040518091039020600101818054600181600116156101000203166002900480601f0160208091040260200160405190810160405280929190818152602001828054600181600116156101000203166002900480156107fe5780601f106107d3576101008083540402835291602001916107fe565b820191906000526020600020905b8154815290600101906020018083116107e157829003601f168201915b50505050509150808054600181600116156101000203166002900480601f01602080910402602001604051908101604052809291908181526020018280546001816001161561010002031660029004801561089a5780601f1061086f5761010080835404028352916020019161089a565b820191906000526020600020905b81548152906001019060200180831161087d57829003601f168201915b5050505050905091509150915091565b6000806002856040518082805190602001908083835b6020831015156108e557805182526020820191506020810190506020830392506108c0565b6001836020036101000a038019825116818451168082178552505050505050905001915050908152602001604051809103902060030160009054906101000a900460ff16156109375760009150610a8e565b8381600001908051906020019061094f9291906135fd565b50828160010190805190602001906109689291906135fd565b5060018160030160006101000a81548160ff021916908315150217905550806002866040518082805190602001908083835b6020831015156109bf578051825260208201915060208101905060208303925061099a565b6001836020036101000a038019825116818451168082178552505050505050905001915050908152602001604051809103902060008201816000019080546001816001161561010002031660029004610a1992919061367d565b5060018201816001019080546001816001161561010002031660029004610a4192919061367d565b506002820181600201908054610a58929190613704565b506003820160009054906101000a900460ff168160030160006101000a81548160ff021916908315150217905550905050600191505b509392505050565b60608060006060806060806001886040518082805190602001908083835b602083101515610ad95780518252602082019150602081019050602083039250610ab4565b6001836020036101000a03801982511681845116808217855250505050505090500191505090815260200160405180910390206001016001896040518082805190602001908083835b602083101515610b475780518252602082019150602081019050602083039250610b22565b6001836020036101000a038019825116818451168082178552505050505050905001915050908152602001604051809103902060020160018a6040518082805190602001908083835b602083101515610bb55780518252602082019150602081019050602083039250610b90565b6001836020036101000a03801982511681845116808217855250505050505090500191505090815260200160405180910390206000015460018b6040518082805190602001908083835b602083101515610c245780518252602082019150602081019050602083039250610bff565b6001836020036101000a038019825116818451168082178552505050505050905001915050908152602001604051809103902060030160018c6040518082805190602001908083835b602083101515610c925780518252602082019150602081019050602083039250610c6d565b6001836020036101000a038019825116818451168082178552505050505050905001915050908152602001604051809103902060040160018d6040518082805190602001908083835b602083101515610d005780518252602082019150602081019050602083039250610cdb565b6001836020036101000a038019825116818451168082178552505050505050905001915050908152602001604051809103902060050160018e6040518082805190602001908083835b602083101515610d6e5780518252602082019150602081019050602083039250610d49565b6001836020036101000a0380198251168184511680821785525050505050509050019150509081526020016040518091039020600601868054600181600116156101000203166002900480601f016020809104026020016040519081016040528092919081815260200182805460018160011615610100020316600290048015610e395780601f10610e0e57610100808354040283529160200191610e39565b820191906000526020600020905b815481529060010190602001808311610e1c57829003601f168201915b50505050509650858054600181600116156101000203166002900480601f016020809104026020016040519081016040528092919081815260200182805460018160011615610100020316600290048015610ed55780601f10610eaa57610100808354040283529160200191610ed5565b820191906000526020600020905b815481529060010190602001808311610eb857829003601f168201915b50505050509550838054600181600116156101000203166002900480601f016020809104026020016040519081016040528092919081815260200182805460018160011615610100020316600290048015610f715780601f10610f4657610100808354040283529160200191610f71565b820191906000526020600020905b815481529060010190602001808311610f5457829003601f168201915b50505050509350828054600181600116156101000203166002900480601f01602080910402602001604051908101604052809291908181526020018280546001816001161561010002031660029004801561100d5780601f10610fe25761010080835404028352916020019161100d565b820191906000526020600020905b815481529060010190602001808311610ff057829003601f168201915b50505050509250818054600181600116156101000203166002900480601f0160208091040260200160405190810160405280929190818152602001828054600181600116156101000203166002900480156110a95780601f1061107e576101008083540402835291602001916110a9565b820191906000526020600020905b81548152906001019060200180831161108c57829003601f168201915b50505050509150808054600181600116156101000203166002900480601f0160208091040260200160405190810160405280929190818152602001828054600181600116156101000203166002900480156111455780601f1061111a57610100808354040283529160200191611145565b820191906000526020600020905b81548152906001019060200180831161112857829003601f168201915b505050505090509650965096509650965096509650919395979092949650565b6000806002836040518082805190602001908083835b6020831015156111a0578051825260208201915060208101905060208303925061117b565b6001836020036101000a038019825116818451168082178552505050505050905001915050908152602001604051809103902060030160009054906101000a900460ff161561141157600090506002836040518082805190602001908083835b6020831015156112255780518252602082019150602081019050602083039250611200565b6001836020036101000a0380198251168184511680821785525050505050509050019150509081526020016040518091039020600201805490508110156114105761138d6002846040518082805190602001908083835b6020831015156112a1578051825260208201915060208101905060208303925061127c565b6001836020036101000a0380198251168184511680821785525050505050509050019150509081526020016040518091039020600201828154811015156112e457fe5b906000526020600020018054600181600116156101000203166002900480601f0160208091040260200160405190810160405280929190818152602001828054600181600116156101000203166002900480156113825780601f1061135757610100808354040283529160200191611382565b820191906000526020600020905b81548152906001019060200180831161136557829003601f168201915b50505050508561344c565b156114075760026001856040518082805190602001908083835b6020831015156113cc57805182526020820191506020810190506020830392506113a7565b6001836020036101000a0380198251168184511680821785525050505050509050019150509081526020016040518091039020600001819055505b60019150611416565b5b600091505b5092915050565b6000816001846040518082805190602001908083835b6020831015156114585780518252602082019150602081019050602083039250611433565b6001836020036101000a038019825116818451168082178552505050505050905001915050908152602001604051809103902060070190805190602001906114a19291906135fd565b506001905092915050565b600080838160000190805190602001906114c79291906135fd565b50828160010190805190602001906114e09291906135fd565b50806003866040518082805190602001908083835b60208310151561151a57805182526020820191506020810190506020830392506114f5565b6001836020036101000a03801982511681845116808217855250505050505090500191505090815260200160405180910390206000820181600001908054600181600116156101000203166002900461157492919061367d565b506001820181600101908054600181600116156101000203166002900461159c92919061367d565b5090505060019150509392505050565b60008060006116c16001876040518082805190602001908083835b6020831015156115ec57805182526020820191506020810190506020830392506115c7565b6001836020036101000a03801982511681845116808217855250505050505090500191505090815260200160405180910390206007018054600181600116156101000203166002900480601f0160208091040260200160405190810160405280929190818152602001828054600181600116156101000203166002900480156116b65780601f1061168b576101008083540402835291602001916116b6565b820191906000526020600020905b81548152906001019060200180831161169957829003601f168201915b50505050508661344c565b15611bf2576002846040518082805190602001908083835b6020831015156116fe57805182526020820191506020810190506020830392506116d9565b6001836020036101000a038019825116818451168082178552505050505050905001915050908152602001604051809103902060030160009054906101000a900460ff1615611bf1576001866040518082805190602001908083835b60208310151561177f578051825260208201915060208101905060208303925061175a565b6001836020036101000a03801982511681845116808217855250505050505090500191505090815260200160405180910390206008018490806001815401808255809150509060018203906000526020600020016000909192909190915090805190602001906117f09291906135fd565b5050600180876040518082805190602001908083835b60208310151561182b5780518252602082019150602081019050602083039250611806565b6001836020036101000a0380198251168184511680821785525050505050509050019150509081526020016040518091039020600001819055506002846040518082805190602001908083835b60208310151561189d5780518252602082019150602081019050602083039250611878565b6001836020036101000a03801982511681845116808217855250505050505090500191505090815260200160405180910390206002018054905090506000811415611a6e576002846040518082805190602001908083835b60208310151561191a57805182526020820191506020810190506020830392506118f5565b6001836020036101000a038019825116818451168082178552505050505050905001915050908152602001604051809103902060020186908060018154018082558091505090600182039060005260206000200160009091929091909150908051906020019061198b9291906135fd565b50506002846040518082805190602001908083835b6020831015156119c557805182526020820191506020810190506020830392506119a0565b6001836020036101000a03801982511681845116808217855250505050505090500191505090815260200160405180910390206002018060018154018082558091505090600182039060005260206000200160006040805190810160405280600481526020017f6861636b0000000000000000000000000000000000000000000000000000000081525090919091509080519060200190611a679291906135fd565b5050611be8565b856002856040518082805190602001908083835b602083101515611aa75780518252602082019150602081019050602083039250611a82565b6001836020036101000a038019825116818451168082178552505050505050905001915050908152602001604051809103902060020160018303815481101515611aed57fe5b906000526020600020019080519060200190611b0a9291906135fd565b506002846040518082805190602001908083835b602083101515611b435780518252602082019150602081019050602083039250611b1e565b6001836020036101000a03801982511681845116808217855250505050505090500191505090815260200160405180910390206002018060018154018082558091505090600182039060005260206000200160006040805190810160405280600481526020017f6861636b0000000000000000000000000000000000000000000000000000000081525090919091509080519060200190611be59291906135fd565b50505b60019250611bf7565b5b600092505b50509392505050565b6060806002836040518082805190602001908083835b602083101515611c3b5780518252602082019150602081019050602083039250611c16565b6001836020036101000a03801982511681845116808217855250505050505090500191505090815260200160405180910390206000016002846040518082805190602001908083835b602083101515611ca95780518252602082019150602081019050602083039250611c84565b6001836020036101000a0380198251168184511680821785525050505050509050019150509081526020016040518091039020600101818054600181600116156101000203166002900480601f016020809104026020016040519081016040528092919081815260200182805460018160011615610100020316600290048015611d745780601f10611d4957610100808354040283529160200191611d74565b820191906000526020600020905b815481529060010190602001808311611d5757829003601f168201915b50505050509150808054600181600116156101000203166002900480601f016020809104026020016040519081016040528092919081815260200182805460018160011615610100020316600290048015611e105780601f10611de557610100808354040283529160200191611e10565b820191906000526020600020905b815481529060010190602001808311611df357829003601f168201915b5050505050905091509150915091565b6000806000611e2d613774565b6000611e376137c1565b6000611e416137c1565b600080965060018c6040518082805190602001908083835b602083101515611e7e5780518252602082019150602081019050602083039250611e59565b6001836020036101000a0380198251168184511680821785525050505050509050019150509081526020016040518091039020610120604051908101604052908160008201548152602001600182018054600181600116156101000203166002900480601f016020809104026020016040519081016040528092919081815260200182805460018160011615610100020316600290048015611f615780601f10611f3657610100808354040283529160200191611f61565b820191906000526020600020905b815481529060010190602001808311611f4457829003601f168201915b50505050508152602001600282018054600181600116156101000203166002900480601f0160208091040260200160405190810160405280929190818152602001828054600181600116156101000203166002900480156120035780601f10611fd857610100808354040283529160200191612003565b820191906000526020600020905b815481529060010190602001808311611fe657829003601f168201915b50505050508152602001600382018054600181600116156101000203166002900480601f0160208091040260200160405190810160405280929190818152602001828054600181600116156101000203166002900480156120a55780601f1061207a576101008083540402835291602001916120a5565b820191906000526020600020905b81548152906001019060200180831161208857829003601f168201915b50505050508152602001600482018054600181600116156101000203166002900480601f0160208091040260200160405190810160405280929190818152602001828054600181600116156101000203166002900480156121475780601f1061211c57610100808354040283529160200191612147565b820191906000526020600020905b81548152906001019060200180831161212a57829003601f168201915b50505050508152602001600582018054600181600116156101000203166002900480601f0160208091040260200160405190810160405280929190818152602001828054600181600116156101000203166002900480156121e95780601f106121be576101008083540402835291602001916121e9565b820191906000526020600020905b8154815290600101906020018083116121cc57829003601f168201915b50505050508152602001600682018054600181600116156101000203166002900480601f01602080910402602001604051908101604052809291908181526020018280546001816001161561010002031660029004801561228b5780601f106122605761010080835404028352916020019161228b565b820191906000526020600020905b81548152906001019060200180831161226e57829003601f168201915b50505050508152602001600782018054600181600116156101000203166002900480601f01602080910402602001604051908101604052809291908181526020018280546001816001161561010002031660029004801561232d5780601f106123025761010080835404028352916020019161232d565b820191906000526020600020905b81548152906001019060200180831161231057829003601f168201915b5050505050815260200160088201805480602002602001604051908101604052809291908181526020016000905b82821015612417578382906000526020600020018054600181600116156101000203166002900480601f0160208091040260200160405190810160405280929190818152602001828054600181600116156101000203166002900480156124035780601f106123d857610100808354040283529160200191612403565b820191906000526020600020905b8154815290600101906020018083116123e657829003601f168201915b50505050508152602001906001019061235b565b5050505081525050955085610100015151945060028b6040518082805190602001908083835b602083101515612462578051825260208201915060208101905060208303925061243d565b6001836020036101000a038019825116818451168082178552505050505050905001915050908152602001604051809103902060806040519081016040529081600082018054600181600116156101000203166002900480601f01602080910402602001604051908101604052809291908181526020018280546001816001161561010002031660029004801561253a5780601f1061250f5761010080835404028352916020019161253a565b820191906000526020600020905b81548152906001019060200180831161251d57829003601f168201915b50505050508152602001600182018054600181600116156101000203166002900480601f0160208091040260200160405190810160405280929190818152602001828054600181600116156101000203166002900480156125dc5780601f106125b1576101008083540402835291602001916125dc565b820191906000526020600020905b8154815290600101906020018083116125bf57829003601f168201915b5050505050815260200160028201805480602002602001604051908101604052809291908181526020016000905b828210156126c6578382906000526020600020018054600181600116156101000203166002900480601f0160208091040260200160405190810160405280929190818152602001828054600181600116156101000203166002900480156126b25780601f10612687576101008083540402835291602001916126b2565b820191906000526020600020905b81548152906001019060200180831161269557829003601f168201915b50505050508152602001906001019061260a565b5050505081526020016003820160009054906101000a900460ff161515151581525050935060028b6040518082805190602001908083835b60208310151561272357805182526020820191506020810190506020830392506126fe565b6001836020036101000a038019825116818451168082178552505050505050905001915050908152602001604051809103902060020180549050925060028a6040518082805190602001908083835b6020831015156127975780518252602082019150602081019050602083039250612772565b6001836020036101000a038019825116818451168082178552505050505050905001915050908152602001604051809103902060806040519081016040529081600082018054600181600116156101000203166002900480601f01602080910402602001604051908101604052809291908181526020018280546001816001161561010002031660029004801561286f5780601f106128445761010080835404028352916020019161286f565b820191906000526020600020905b81548152906001019060200180831161285257829003601f168201915b50505050508152602001600182018054600181600116156101000203166002900480601f0160208091040260200160405190810160405280929190818152602001828054600181600116156101000203166002900480156129115780601f106128e657610100808354040283529160200191612911565b820191906000526020600020905b8154815290600101906020018083116128f457829003601f168201915b5050505050815260200160028201805480602002602001604051908101604052809291908181526020016000905b828210156129fb578382906000526020600020018054600181600116156101000203166002900480601f0160208091040260200160405190810160405280929190818152602001828054600181600116156101000203166002900480156129e75780601f106129bc576101008083540402835291602001916129e7565b820191906000526020600020905b8154815290600101906020018083116129ca57829003601f168201915b50505050508152602001906001019061293f565b5050505081526020016003820160009054906101000a900460ff161515151581525050915083606001518015612a32575081606001515b156130c157600097505b82881015612a8457612a69846040015189815181101515612a5957fe5b906020019060200201518d61344c565b15612a775760019650612a84565b8780600101985050612a3c565b6001151587151514156130c057600097505b84881015612b7557612ac486610100015189815181101515612ab457fe5b906020019060200201518c61344c565b15612b68578960018d6040518082805190602001908083835b602083101515612b025780518252602082019150602081019050602083039250612add565b6001836020036101000a038019825116818451168082178552505050505050905001915050908152602001604051809103902060080189815481101515612b4557fe5b906000526020600020019080519060200190612b629291906135fd565b50612b75565b8780600101985050612a96565b600097505b828810156130bf57612ca960028c6040518082805190602001908083835b602083101515612bbd5780518252602082019150602081019050602083039250612b98565b6001836020036101000a038019825116818451168082178552505050505050905001915050908152602001604051809103902060020189815481101515612c0057fe5b906000526020600020018054600181600116156101000203166002900480601f016020809104026020016040519081016040528092919081815260200182805460018160011615610100020316600290048015612c9e5780601f10612c7357610100808354040283529160200191612c9e565b820191906000526020600020905b815481529060010190602001808311612c8157829003601f168201915b50505050508d61344c565b156130b257612d258860028d6040518082805190602001908083835b602083101515612cea5780518252602082019150602081019050602083039250612cc5565b6001836020036101000a0380198251168184511680821785525050505050509050019150509081526020016040518091039020600201613525565b5060028a6040518082805190602001908083835b602083101515612d5e5780518252602082019150602081019050602083039250612d39565b6001836020036101000a03801982511681845116808217855250505050505090500191505090815260200160405180910390206002018054905090506000811415612f2f5760028a6040518082805190602001908083835b602083101515612ddb5780518252602082019150602081019050602083039250612db6565b6001836020036101000a03801982511681845116808217855250505050505090500191505090815260200160405180910390206002018c9080600181540180825580915050906001820390600052602060002001600090919290919091509080519060200190612e4c9291906135fd565b505060028a6040518082805190602001908083835b602083101515612e865780518252602082019150602081019050602083039250612e61565b6001836020036101000a03801982511681845116808217855250505050505090500191505090815260200160405180910390206002018060018154018082558091505090600182039060005260206000200160006040805190810160405280600481526020017f6861636b0000000000000000000000000000000000000000000000000000000081525090919091509080519060200190612f289291906135fd565b50506130a9565b8b60028b6040518082805190602001908083835b602083101515612f685780518252602082019150602081019050602083039250612f43565b6001836020036101000a038019825116818451168082178552505050505050905001915050908152602001604051809103902060020160018303815481101515612fae57fe5b906000526020600020019080519060200190612fcb9291906135fd565b5060028a6040518082805190602001908083835b6020831015156130045780518252602082019150602081019050602083039250612fdf565b6001836020036101000a03801982511681845116808217855250505050505090500191505090815260200160405180910390206002018060018154018082558091505090600182039060005260206000200160006040805190810160405280600481526020017f6861636b00000000000000000000000000000000000000000000000000000000815250909190915090805190602001906130a69291906135fd565b50505b600198506130c6565b8780600101985050612b7a565b5b5b600098505b50505050505050509392505050565b6060806003836040518082805190602001908083835b60208310151561311057805182526020820191506020810190506020830392506130eb565b6001836020036101000a03801982511681845116808217855250505050505090500191505090815260200160405180910390206000016003846040518082805190602001908083835b60208310151561317e5780518252602082019150602081019050602083039250613159565b6001836020036101000a0380198251168184511680821785525050505050509050019150509081526020016040518091039020600101818054600181600116156101000203166002900480601f0160208091040260200160405190810160405280929190818152602001828054600181600116156101000203166002900480156132495780601f1061321e57610100808354040283529160200191613249565b820191906000526020600020905b81548152906001019060200180831161322c57829003601f168201915b50505050509150808054600181600116156101000203166002900480601f0160208091040260200160405190810160405280929190818152602001828054600181600116156101000203166002900480156132e55780601f106132ba576101008083540402835291602001916132e5565b820191906000526020600020905b8154815290600101906020018083116132c857829003601f168201915b5050505050905091509150915091565b60606002826040518082805190602001908083835b60208310151561332f578051825260208201915060208101905060208303925061330a565b6001836020036101000a0380198251168184511680821785525050505050509050019150509081526020016040518091039020600201805480602002602001604051908101604052809291908181526020016000905b82821015613441578382906000526020600020018054600181600116156101000203166002900480601f01602080910402602001604051908101604052809291908181526020018280546001816001161561010002031660029004801561342d5780601f106134025761010080835404028352916020019161342d565b820191906000526020600020905b81548152906001019060200180831161341057829003601f168201915b505050505081526020019060010190613385565b505050509050919050565b6000816040518082805190602001908083835b602083101515613484578051825260208201915060208101905060208303925061345f565b6001836020036101000a038019825116818451168082178552505050505050905001915050604051809103902060001916836040518082805190602001908083835b6020831015156134eb57805182526020820191506020810190506020830392506134c6565b6001836020036101000a03801982511681845116808217855250505050505090500191505060405180910390206000191614905092915050565b60008082805490508410151561353e57600091506135f6565b8390505b60018380549050038110156135b157826001820181548110151561356257fe5b90600052602060002001838281548110151561357a57fe5b9060005260206000200190805460018160011615610100020316600290046135a39291906137ec565b508080600101915050613542565b8260018480549050038154811015156135c657fe5b9060005260206000200160006135dc9190613873565b828054809190600190036135f091906138bb565b50600191505b5092915050565b828054600181600116156101000203166002900490600052602060002090601f016020900481019282601f1061363e57805160ff191683800117855561366c565b8280016001018555821561366c579182015b8281111561366b578251825591602001919060010190613650565b5b50905061367991906138e7565b5090565b828054600181600116156101000203166002900490600052602060002090601f016020900481019282601f106136b657805485556136f3565b828001600101855582156136f357600052602060002091601f016020900482015b828111156136f25782548255916001019190600101906136d7565b5b50905061370091906138e7565b5090565b8280548282559060005260206000209081019282156137635760005260206000209182015b82811115613762578282908054600181600116156101000203166002900461375292919061367d565b5091600101919060010190613729565b5b509050613770919061390c565b5090565b610120604051908101604052806000815260200160608152602001606081526020016060815260200160608152602001606081526020016060815260200160608152602001606081525090565b6080604051908101604052806060815260200160608152602001606081526020016000151581525090565b828054600181600116156101000203166002900490600052602060002090601f016020900481019282601f106138255780548555613862565b8280016001018555821561386257600052602060002091601f016020900482015b82811115613861578254825591600101919060010190613846565b5b50905061386f91906138e7565b5090565b50805460018160011615610100020316600290046000825580601f1061389957506138b8565b601f0160209004906000526020600020908101906138b791906138e7565b5b50565b8154818355818111156138e2578183600052602060002091820191016138e1919061390c565b5b505050565b61390991905b808211156139055760008160009055506001016138ed565b5090565b90565b61393591905b8082111561393157600081816139289190613873565b50600101613912565b5090565b90565b600082601f830112151561394b57600080fd5b813561395e61395982613e8d565b613e60565b9150808252602083016020830185838301111561397a57600080fd5b613985838284613f14565b50505092915050565b600061399a8235613f0a565b905092915050565b6000602082840312156139b457600080fd5b600082013567ffffffffffffffff8111156139ce57600080fd5b6139da84828501613938565b91505092915050565b600080604083850312156139f657600080fd5b600083013567ffffffffffffffff811115613a1057600080fd5b613a1c85828601613938565b925050602083013567ffffffffffffffff811115613a3957600080fd5b613a4585828601613938565b9150509250929050565b600080600060608486031215613a6457600080fd5b600084013567ffffffffffffffff811115613a7e57600080fd5b613a8a86828701613938565b935050602084013567ffffffffffffffff811115613aa757600080fd5b613ab386828701613938565b925050604084013567ffffffffffffffff811115613ad057600080fd5b613adc86828701613938565b9150509250925092565b600080600080600080600080610100898b031215613b0357600080fd5b600089013567ffffffffffffffff811115613b1d57600080fd5b613b298b828c01613938565b985050602089013567ffffffffffffffff811115613b4657600080fd5b613b528b828c01613938565b975050604089013567ffffffffffffffff811115613b6f57600080fd5b613b7b8b828c01613938565b9650506060613b8c8b828c0161398e565b955050608089013567ffffffffffffffff811115613ba957600080fd5b613bb58b828c01613938565b94505060a089013567ffffffffffffffff811115613bd257600080fd5b613bde8b828c01613938565b93505060c089013567ffffffffffffffff811115613bfb57600080fd5b613c078b828c01613938565b92505060e089013567ffffffffffffffff811115613c2457600080fd5b613c308b828c01613938565b9150509295985092959890939650565b6000613c4b82613ec6565b80845260208401935083602082028501613c6485613eb9565b60005b84811015613c9d578383038852613c7f838351613cf3565b9250613c8a82613ee7565b9150602088019750600181019050613c67565b508196508694505050505092915050565b613cb781613ef4565b82525050565b6000613cc882613edc565b808452613cdc816020860160208601613f23565b613ce581613f56565b602085010191505092915050565b6000613cfe82613ed1565b808452613d12816020860160208601613f23565b613d1b81613f56565b602085010191505092915050565b613d3281613f00565b82525050565b60006020820190508181036000830152613d528184613c40565b905092915050565b6000602082019050613d6f6000830184613cae565b92915050565b60006040820190508181036000830152613d8f8185613cbd565b90508181036020830152613da38184613cbd565b90509392505050565b600060e0820190508181036000830152613dc6818a613cbd565b90508181036020830152613dda8189613cbd565b9050613de96040830188613d29565b8181036060830152613dfb8187613cbd565b90508181036080830152613e0f8186613cbd565b905081810360a0830152613e238185613cbd565b905081810360c0830152613e378184613cbd565b905098975050505050505050565b6000602082019050613e5a6000830184613d29565b92915050565b6000604051905081810181811067ffffffffffffffff82111715613e8357600080fd5b8060405250919050565b600067ffffffffffffffff821115613ea457600080fd5b601f19601f8301169050602081019050919050565b6000602082019050919050565b600081519050919050565b600081519050919050565b600081519050919050565b6000602082019050919050565b60008115159050919050565b6000819050919050565b6000819050919050565b82818337600083830152505050565b60005b83811015613f41578082015181840152602081019050613f26565b83811115613f50576000848401525b50505050565b6000601f19601f83011690509190505600a265627a7a72305820690aeefeb5db02911955f4acc09e7c16d03e79b934fe6e5f5659e82c4209e45f6c6578706572696d656e74616cf50037",
  "source": "pragma solidity ^0.4.22;\npragma experimental ABIEncoderV2;\n\n// Data for testing the functions\n// createCode:          \"11\", \"Nike\", \"Jordan\", 0, \"It's costly\", \"Pratibha Co.\", \"Mumbai\", \"11:00\"\n//                      \"22\", \"Adidas\", \"Air\", 0, \"It's limited\", \"Prabhat Co.\", \"GUjarat\", \"12:00\"\n//                      \"33\", \"Reebok\", \"Ball\", 0, \"It's limited\", \"Prabhat Co.\", \"GUjarat\", \"12:00\"\n// createCustomer:      \"81bd53649936d1e82c64ed216d9d7490\", \"Kyle\", \"9869245690\"\n//                      \"1c29fb983dbe92474a199631dca38fc6\", \"Calden\", \"9123456789\"\n// createRetailer:      \"1111\", \"Lifestyle\", \"Andheri\"\n// addRetailerToCode:   \"11\", \"67xasdbsdfshjd89724hjdsf\"\n// initialOwner:        \"11\", \"Lifestyle\", \"Kyle\"\n//                      \"22\", \"ShopersStop\", \"Calden\"\n// changeOwner          \"11\", \"Calden\", \"Kyle\"\n\n// TODO:\n// Remove timestamp from createCustomer\n// Removed onlyOwner from Retailer\n\ncontract Authentifi {\n    address owner;\n    // string temp;\n    // function Authentifi(string _temp) public {\n    //     temp = _temp;\n    // }\n\n    // A struct which helps create a new code\n    // code is a combination of - brand name, model no, status, description,\n    // manufacturer details, retailer details, owner details\n    struct codeObj {\n        uint status;\n        string brand;\n        string model;\n        string description;\n        string manufactuerName;\n        string manufactuerLocation;\n        string manufactuerTimestamp;\n        string retailer;\n        string[] customers;\n    }\n\n    // A struct which helps create a new customer\n    struct customerObj {\n        string name;\n        string phone;\n        string[] code;\n        bool isValue;\n    }\n\n    struct retailerObj {\n        string name;\n        string location;\n    }\n\n    mapping (string => codeObj) codeArr;\n    mapping (string => customerObj) customerArr;\n    mapping (string => retailerObj) retailerArr;\n    /*\n    function createOwner() public {\n        owner = msg.sender;\n    }\n\n    modifier onlyOwner {\n        require(msg.sender == owner);\n        _;\n    }\n\n    function whoIsOwner() public view returns (address) {\n        return owner;\n    }\n*/\n    // Function to create a new code for the product\n    function createCode(string _code, string _brand, string _model, uint _status, string _description, string _manufactuerName, string _manufactuerLocation, string _manufactuerTimestamp) public payable returns (uint) {\n        codeObj newCode;\n        newCode.brand = _brand;\n        newCode.model = _model;\n        newCode.status = _status;\n        newCode.description = _description;\n        newCode.manufactuerName = _manufactuerName;\n        newCode.manufactuerLocation = _manufactuerLocation;\n        newCode.manufactuerTimestamp = _manufactuerTimestamp;\n        codeArr[_code] = newCode;\n        return 1;\n    }\n\n    // Function for showing product details if the person scanning the product is not the owner\n    function getNotOwnedCodeDetails(string _code) public view returns (string, string, uint, string, string, string, string) {\n        return (codeArr[_code].brand, codeArr[_code].model, codeArr[_code].status, codeArr[_code].description, codeArr[_code].manufactuerName, codeArr[_code].manufactuerLocation, codeArr[_code].manufactuerTimestamp);\n    }\n\n    // Function for showing product details if the person scanning the product is the owner\n    function getOwnedCodeDetails(string _code) public view returns (string, string) {\n        return (retailerArr[codeArr[_code].retailer].name, retailerArr[codeArr[_code].retailer].location);\n    }\n\n    // Function for creating a new retailer\n    function addRetailerToCode(string _code, string _hashedEmailRetailer) public payable returns (uint) {\n        codeArr[_code].retailer = _hashedEmailRetailer;\n        return 1;\n    }\n\n    // Function for creating a new customer\n    function createCustomer(string _hashedEmail, string _name, string _phone) public payable returns (bool) {\n        if (customerArr[_hashedEmail].isValue) {\n            return false;\n        }\n        customerObj newCustomer;\n        newCustomer.name = _name;\n        newCustomer.phone = _phone;\n        newCustomer.isValue = true;\n        customerArr[_hashedEmail] = newCustomer;\n        return true;\n    }\n\n    function getCustomerDetails(string _code) public view returns (string, string) {\n        return (customerArr[_code].name, customerArr[_code].phone);\n    }\n\n    function createRetailer(string _hashedEmail, string _retailerName, string _retailerLocation) public payable returns (uint) {\n        retailerObj newRetailer;\n        newRetailer.name = _retailerName;\n        newRetailer.location = _retailerLocation;\n        retailerArr[_hashedEmail] = newRetailer;\n        return 1;\n    }\n\n    function getRetailerDetails(string _code) public view returns (string, string) {\n        return (retailerArr[_code].name, retailerArr[_code].location);\n    }\n\n    // Function to report stolen\n    function reportStolen(string _code, string _customer) public payable returns (bool) {\n        uint i;\n        // Checking if the customer exists\n        if (customerArr[_customer].isValue) {\n            // Checking if the customer owns the product\n            for (i = 0; i < customerArr[_customer].code.length; i++) {\n                if (compareStrings(customerArr[_customer].code[i], _code)) {\n                    codeArr[_code].status = 2;        // Changing the status to stolen\n                }\n                return true;\n            }\n        }\n        return false;\n    }\n\n    function changeOwner(string _code, string _oldCustomer, string _newCustomer) public payable returns (bool) {\n        uint i;\n        bool flag = false;\n         //Creating objects for code,oldCustomer,newCustomer\n        codeObj memory product = codeArr[_code];\n        uint len_product_customer = product.customers.length;\n        customerObj memory oldCustomer = customerArr[_oldCustomer];\n        uint len_oldCustomer_code = customerArr[_oldCustomer].code.length;\n        customerObj memory newCustomer = customerArr[_newCustomer];\n\n        //Check if oldCustomer and newCustomer have an account\n        if (oldCustomer.isValue && newCustomer.isValue) {\n            //Check if oldCustomer is owner\n            for (i = 0; i < len_oldCustomer_code; i++) {\n                if (compareStrings(oldCustomer.code[i], _code)) {\n                    flag = true;\n                    break;\n                }\n            }\n\n            if (flag == true) {\n                //Swaping oldCustomer with newCustomer in product\n                for (i = 0; i < len_product_customer; i++) {\n                    if (compareStrings(product.customers[i], _oldCustomer)) {\n                        codeArr[_code].customers[i] = _newCustomer;\n                        break;\n                    }\n                }\n\n                // Removing product from oldCustomer\n                for (i = 0; i < len_oldCustomer_code; i++) {\n                    if (compareStrings(customerArr[_oldCustomer].code[i], _code)) {\n                        remove(i, customerArr[_oldCustomer].code);\n                        // Adding product to newCustomer\n                        uint len = customerArr[_newCustomer].code.length;\n                        if(len == 0){\n                            customerArr[_newCustomer].code.push(_code);\n                            customerArr[_newCustomer].code.push(\"hack\");\n                        } else {\n                            customerArr[_newCustomer].code[len-1] = _code;\n                            customerArr[_newCustomer].code.push(\"hack\");\n                        }\n                        return true;\n                    }\n                }\n            }\n        }\n        return false;\n    }\n\n\n    function initialOwner(string _code, string _retailer, string _customer) public payable returns(bool) {\n            uint i;\n            if (compareStrings(codeArr[_code].retailer, _retailer)) {       // Check if retailer owns the prodct\n                if (customerArr[_customer].isValue) {                       // Check if Customer has an account\n                    codeArr[_code].customers.push(_customer);               // Adding customer in code\n                    codeArr[_code].status = 1;\n                    uint len = customerArr[_customer].code.length;\n                    if(len == 0) {\n                        customerArr[_customer].code.push(_code);\n                        customerArr[_customer].code.push(\"hack\");\n                    } else {\n                    customerArr[_customer].code[len-1] = _code;\n                    customerArr[_customer].code.push(\"hack\");\n                    }\n                    return true;\n                }\n            }\n            return false;\n        }\n\n    // Given a customer returns all the product codes he owwns\n    function getCodes(string _customer) public view returns(string[]) {\n        return customerArr[_customer].code;\n    }\n\n    // Cannot directly compare strings in Solidity\n    // This function hashes the 2 strings and then compares the 2 hashes\n    function compareStrings(string a, string b) internal returns (bool) {\n    \treturn keccak256(a) == keccak256(b);\n    }\n\n    // Function to delete an element from an array\n    function remove(uint index, string[] storage array) internal returns(bool) {\n        if (index >= array.length)\n            return false;\n\n        for (uint i = index; i < array.length-1; i++) {\n            array[i] = array[i+1];\n        }\n        delete array[array.length-1];\n        array.length--;\n        return true;\n    }\n\n    // Function to convert string to bytes32\n    function stringToBytes32(string memory source) internal returns (bytes32 result) {\n        bytes memory tempEmptyStringTest = bytes(source);\n        if (tempEmptyStringTest.length == 0) {\n            return 0x0;\n        }\n        assembly {\n            result := mload(add(source, 32))\n        }\n    }\n}\n",
  "sourcePath": "/home/kush/proj/AuthentiFi-master/contracts/authentifi.sol",
  "compiler": {
    "name": "solc",
    "version": "0.4.22+commit.4cb486ee.Emscripten.clang"
  },
  "schemaVersion": "3.4.8",
  "updatedAt": "2022-07-22T11:29:30.749Z",
  "networkType": "ethereum",
  "devdoc": {
    "methods": {}
  },
  "userdoc": {
    "methods": {}
  }
}